:1000000000EF08F00000000000EF00F0000000002A
:0A0010000000000000000000F3D71C
:101000009388949A1B6AC8D8CA90CA92CA80CA8226
:10101000950ECB6EE2D8E5D80A0E1B6E8ED800C0B6
:1010200019F001C01AF000C002F001C003F0033251
:101030000232039E03320232039E02C019F003C043
:101040001AF002C01BF041D8020E0B6E380E0C6E67
:10105000AD0E0D6E0D2EFED70C2EFCD70B2EFAD733
:0C10600080B602D018EF00F0D7D7FFD701
:0E106C00570E0D6E0D2EFED700000000120074
:10107A000B6A0A6A096A00500402F4CF09F0F3CF36
:10108A0008F001500502F4CF0BF0F3CF0AF000503C
:10109A000502F3500926F4500A22E86A0B2201508D
:1010AA000402F3500926F4500A22E86A0B2208C007
:1010BA0000F009C001F00AC002F00BC003F01200F0
:1010CA00010E006E000E016ECB500026D8B0012A28
:1010DA001BC004F0000E056ECBDF060E026E00C0C8
:1010EA0004F001C005F0025005E005320432059E05
:1010FA00FF0FFAD7040E016E04C000F0015004E09D
:10110A0000360090FF0FFBD7300E0014036E04C0A8
:10111A0000F005C001F001320032019E01320032B6
:10112A00019E00C0BEFF0F0EBD160350BD12120075
:10113A00C30EC216030E1B5C000ED8B0FF0E016E62
:10114A001B500B08000ED8B0FF0E006E015000169F
:10115A0008E01BC000F000360090003600900050F6
:10116A00C2127FDFC282C2A202D00000FCD7C4CF63
:10117A0001F0006A00C01CF001C01DF0C3501C122F
:0E118A00000E1D121CC000F01DC001F012006E
:101198003A0E156E110E166E1B0E176E000E186E97
:1011A800C26A300E1B14006E07E0300E1B14BA6EB4
:1011B800BA8EBAACFED701D0BA6AF00EC1160F0EBD
:1011C8001B14006E0050C112070EC012C08EC280E0
:0211D800120003
:0811DA00BE6ABD98BD9A120027
:0A11E200949ACA840C0EBD1212008C
:020000040030CA
:0E00000000321F1EFF8881FF03C003E0034093
:00000001FF
