:1000000000EF08F00000000000EF00F0000000002A
:0A0010000000000000000000F3D71C
:10100000700E946E8B6AB886040EB06EE10EAF6EF1
:10101000AC8421D97F96938A939E8B968B808B92FA
:101020008B9482A812D0310E256E40D9100E0B6E13
:10103000390E0C6E0D0E0D6E0D2EFED70C2EFCD73C
:101040000B2EFAD700000000ECD782AA12D0320E85
:10105000256E2CD9100E0B6E390E0C6E0D0E0D6E0A
:101060000D2EFED70C2EFCD70B2EFAD70000000059
:10107000ECD782AC12D0330E256E18D9100E0B6E41
:10108000390E0C6E0D0E0D6E0D2EFED70C2EFCD7EC
:101090000B2EFAD700000000ECD78B908B828B963A
:1010A0008B9482A812D0340E256E00D9100E0B6ED0
:1010B000390E0C6E0D0E0D6E0D2EFED70C2EFCD7BC
:1010C0000B2EFAD700000000ECD782AA12D0350E02
:1010D000256EECD8100E0B6E390E0C6E0D0E0D6ECB
:1010E0000D2EFED70C2EFCD70B2EFAD700000000D9
:1010F000ECD782AC12D0360E256ED8D8100E0B6EFF
:10110000390E0C6E0D0E0D6E0D2EFED70C2EFCD76B
:101110000B2EFAD700000000ECD7829282848B90CD
:101120008B9682A812D0370E256EC0D8100E0B6E8B
:10113000390E0C6E0D0E0D6E0D2EFED70C2EFCD73B
:101140000B2EFAD700000000ECD782AA12D0380E7E
:10115000256EACD8100E0B6E390E0C6E0D0E0D6E8A
:101160000D2EFED70C2EFCD70B2EFAD70000000058
:10117000ECD782AC12D0390E256E98D8100E0B6EBB
:10118000390E0C6E0D0E0D6E0D2EFED70C2EFCD7EB
:101190000B2EFAD700000000ECD7829482868B9049
:1011A0008B9282A812D02A0E256E80D8100E0B6E5C
:1011B000390E0C6E0D0E0D6E0D2EFED70C2EFCD7BB
:1011C0000B2EFAD700000000ECD782AA12D0300E06
:1011D000256E6CD8100E0B6E390E0C6E0D0E0D6E4A
:1011E0000D2EFED70C2EFCD70B2EFAD700000000D8
:1011F000ECD782AC12D0230E256E58D8100E0B6E91
:10120000390E0C6E0D0E0D6E0D2EFED70C2EFCD76A
:0E1210000B2EFAD700000000ECD7FFD6FFD758
:10121E0026C0C9FFC7B002D00000FCD7C9CF00F06E
:02122E001200AC
:0E123000ACB202D00000FCD726C0ADFF120009
:10123E00F250026EF29E0500FF6A0150FE6E0050E3
:08124E00FD6E02BEF28E1200DB
:10125600300E196E120E1A6E260E1B6E000E1C6EC6
:10126600FF0E156EFF0E166E000E176E000E186E30
:10127600FF0E216EFF0E226E000E236E000E246EF0
:10128600FF0E1D6EFF0E1E6E000E1F6E000E206EF0
:10129600AC8A900EAB6E938A938E9EAA03D0AECF85
:0612A60000F0FBD712006E
:1012AC001BC0E1FF1CC0E2FF25C0E6FF19C000F027
:0812BC001AC001F0BEDF1200B0
:020000040030CA
:0E00000000221F1EFF8881FF03C003E00340A3
:00000001FF
