:1000000000EF08F00000000000EF00F0000000002A
:0A0010000000000000000000F3D71C
:10100000949A938A7F960B0E176E92D800C015F0B3
:1010100001C016F0B40E046E000E056E9ED8FF0ED1
:10102000046E030E056EC1D800C015F001C016F0A5
:1010300000C017F001C018F03AD8020E0B6E380E3F
:101040000C6EAD0E0D6E0D2EFED70C2EFCD70B2E9A
:06105000FAD7D9D7FFD743
:101056000134083609360450085E0550D8A0053C10
:10106600095E003601360F0E0C6E0134083609365D
:10107600045000A006D0085E0550D8A0053C095EC5
:1010860005D008260550D8B0053C0926003601369D
:101096000C2EEBD700B006D0045008260550D8B069
:0810A600053C092600001200C0
:1010AE00800E006E800E1818005C02E117500008CA
:1010BE0002E3176A186A800E1818006E800E005C24
:1010CE0002E1B40E175C04E3B40E176E000E186E38
:1010DE008B8A100E0C6E940E0D6E0D2EFED70C2EEE
:1010EE00FCD70000016A026A800E1818006E800E8E
:1010FE000218005C02E10150175C09E3170E0D6E39
:10110E000D2EFED700000000014A022AEDD78B9A61
:02111E001200BD
:101120000900F5CFE6FF0006FBE10106F9E1120038
:1011300017C000F0003600900036009000C0C2FFDB
:10114000C282C2A202D00000FCD7C4CF01F0006A64
:0A115000C3500026000E0122120019
:10115A000B6A0A6A096A00500402F4CF09F0F3CF55
:10116A0008F001500502F4CF0BF0F3CF0AF000505B
:10117A000502F3500926F4500A22E86A0B220150AC
:10118A000402F3500926F4500A22E86A0B2208C026
:10119A0000F009C001F00AC002F00BC003F012000F
:1011AA000450000A08E10550000A05E1FF0E006E2E
:1011BA007F0E016E57D00D6A096A086A0150001045
:1011CA00D8B4000C015005180A6E0ABE0D1E0B6A2F
:1011DA0005AE05D0041E051E042AD8B4052A01AEA0
:1011EA0005D0001E011E002AD8B4012A015005109C
:1011FA000A6E0ABE10D02ADF0BB020D00DAE000C4A
:10120A00001E011E002AD8B4012A081E091E082A37
:10121A00D8B4092A000C05AE0DD001BE07D0015082
:10122A00096E0050086E016A006AE8D7016A006A0E
:10123A00002A000C011E001E0B2ADDD7082AD8B48A
:10124A00092A0450085CD8A4D9D70550095CD8A447
:10125A00D5D7096A086A002AD8B4012A01AECED7BE
:06126A000000FF0C120061
:020000040030CA
:0E00000000321F1EFF8881FF03C003E0034093
:00000001FF
