:1000000000EF10F0000000000FEF08F0000000000B
:0A0010000000000000000000F3D71C
:0E10000000EF10F000EF00F00FEF08F012000C
:10100E000900F5CFE6FF0006FBE10106F9E112004B
:10101E0000C015F0F2A42AD0D59EF294D76AD66AF3
:10102E008A7E000E1B1802E10A0E1A1804E18B705C
:10103E001A6A1B6A02D01A4A1B2A000E191802E1FC
:10104E00640E181804E18B72186A196A02D0184AD5
:10105E00192A1750010A02E1F40E161804E18B74D6
:10106E00166A176A02D0164A172AD58E15C000F0D6
:02107E0011005F
:10200000166A176A186A196A1A6A1B6A080E926EAB
:10201000936A946A896A8A6A8B6A010ED56ED76A56
:10202000D66AE00EF26ED09ED58E80B602D018EF42
:1020300000F0070E0B6E170E0C6E6A0E0D6E0D2E55
:10204000FED70C2EFCD70B2EFAD70000EED7FFD709
:020000040030CA
:0E00000000321F1EFF8881FF03C003E0034093
:00000001FF
