:1000000000EF08F00000000000EF00F0000000002A
:0A0010000000000000000000F3D71C
:10100000B886040EB06EE10EAF6EAC8459D87F96F0
:10101000938A939E946A8B6A7ED80050000A06E0F9
:1010200007D800C019F000C026F00DD8F5D7FFD7BB
:10103000AECF02F0ABA202D0AB98AB8802C001F0F9
:0610400001C000F01200E7
:101046002650300A03E13F0E8B6E36D02650310A09
:1010560003E1060E8B6E30D02650320A03E15B0E9A
:101066008B6E2AD02650330A03E14F0E8B6E24D0A6
:101076002650340A03E1660E8B6E1ED02650350AC2
:1010860003E16D0E8B6E18D02650360A03E17D0EF5
:101096008B6E12D02650370A03E1070E8B6E0CD0EA
:1010A6002650380A03E17F0E8B6E06D02650390A89
:0A10B60003E16F0E8B6E00D01200F4
:1010C000FF0E156EFF0E166EFF0E176EFF0E186EDA
:1010D000300E1A6E100E1B6E000E1C6E000E1D6E72
:1010E000160E226E110E236E000E246E000E256E5B
:1010F000FF0E1E6EFF0E1F6E000E206E000E216E84
:10110000AC8A900EAB6E938A938E9EAA03D0AECF1C
:0611100000F0FBD7120005
:0E111600000E9EBA010E016E01C000F0120024
:020000040030CA
:0E00000000321F1EFF8881FF03C003E0034093
:00000001FF
