:1000000000EF08F00000000000EF00F0000000002A
:0A0010000000000000000000F3D71C
:1010000094968B0E196E0F0E1A6E030E1B6EABECC0
:101010000CF0B80E196E010E1A6EF40E1B6E010E56
:101020001C6ECBEC0CF0B80E196E010E1A6EF40E9D
:101030001B6E010E1C6ECBEC0CF0B80E196E010E7F
:101040001A6EF40E1B6E010E1C6ECBEC0CF05D0ED6
:10105000196E010E1A6E5E0E1B6E010E1C6ECBEC2D
:101060000CF00B0E196E020E1A6E960E1B6E000E11
:101070001C6ECBEC0CF0B80E196E010E1A6EF40E4D
:101080001B6E010E1C6ECBEC0CF05D0E196E010E8A
:101090001A6E5E0E1B6E010E1C6ECBEC0CF00B0E6E
:1010A000196E020E1A6E960E1B6E000E1C6ECBECA5
:1010B0000CF0B80E196E010E1A6E8A0E1B6E020E1F
:1010C0001C6ECBEC0CF00A0E0B6E220E0C6EA10EF9
:1010D0000D6E0D2EFED70C2EFCD70B2EFAD7930ECD
:1010E000196E020E1A6EF40E1B6E010E1C6ECBEC06
:1010F0000CF0930E196E020E1A6EF40E1B6E010E9A
:101100001C6ECBEC0CF0930E196E020E1A6EF40EE0
:101110001B6E010E1C6ECBEC0CF0BA0E196E020E9B
:101120001A6E5E0E1B6E010E1C6ECBEC0CF00B0EDD
:10113000196E020E1A6E960E1B6E000E1C6ECBEC14
:101140000CF09F0E196E010E1A6EF40E1B6E010E3E
:101150001C6ECBEC0CF05D0E196E010E1A6E5E0E5D
:101160001B6E010E1C6ECBEC0CF00B0E196E020EFA
:101170001A6E960E1B6E000E1C6ECBEC0CF0B80EA9
:10118000196E010E1A6E8A0E1B6E020E1C6ECBECCF
:101190000CF00A0E0B6E220E0C6EA10E0D6E0D2EB3
:1011A000FED70C2EFCD70B2EFAD7700E196E030E3D
:1011B0001A6EF40E1B6E010E1C6EEDDBB80E196E6E
:1011C000010E1A6E2C0E1B6E010E1C6EE4DBB80EA7
:1011D000196E010E1A6E960E1B6E000E1C6EDBDB76
:1011E000700E196E030E1A6E900E1B6E010E1C6EA1
:1011F000D2DB3E0E196E030E1A6EC80E1B6E000E69
:101200001C6EC9DB100E196E030E1A6EC80E1B6E13
:10121000000E1C6EC0DBE40E196E020E1A6E7D0EFF
:101220001B6E000E1C6EB7DBBA0E196E020E1A6E24
:101230007D0E1B6E000E1C6EAEDBE40E196E020EF0
:101240001A6EFA0E1B6E000E1C6EA5DB100E0B6ED6
:10125000390E0C6E0D0E0D6E0D2EFED70C2EFCD71A
:101260000B2EFAD700000000C70E196E010E1A6E81
:10127000FA0E1B6E000E1C6E8EDB6E0E196E020EC9
:101280001A6E900E1B6E010E1C6E85DB4B0E196ED6
:10129000020E1A6EC80E1B6E000E1C6E7CDB2A0E30
:1012A000196E020E1A6EC80E1B6E000E1C6E73DBDA
:1012B0000B0E196E020E1A6E7D0E1B6E000E1C6E4A
:1012C0006ADBD20E196E010E1A6E7D0E1B6E000EB9
:1012D0001C6E61DB0B0E196E020E1A6EFA0E1B6E7F
:1012E000000E1C6E58DB100E0B6E390E0C6E0D0EC0
:1012F0000D6E0D2EFED70C2EFCD70B2EFAD700004C
:1013000000005D0E196E010E1A6E7D0E1B6E000E32
:101310001C6E41DB9F0E196E010E1A6EF40E1B6ED1
:10132000010E1C6E38DB5D0E196E010E1A6E770E03
:101330001B6E010E1C6E2FDBB80E196E010E1A6E9D
:101340007D0E1B6E000E1C6E26DB0B0E196E020E40
:101350001A6EF40E1B6E010E1C6E1DDBB80E196E9C
:10136000010E1A6E770E1B6E010E1C6E14DB0B0E37
:10137000196E020E1A6E7D0E1B6E000E1C6E0BDBBC
:10138000930E196E020E1A6E8A0E1B6E020E1C6EE2
:1013900002DB700E196E030E1A6EF40E1B6E010E38
:1013A0001C6EF9DAB80E196E010E1A6E2C0E1B6E39
:1013B000010E1C6EF0DAB80E196E010E1A6E960E42
:1013C0001B6E000E1C6EE7DA700E196E030E1A6E9D
:1013D000900E1B6E010E1C6EDEDA3E0E196E030EB1
:1013E0001A6EC80E1B6E000E1C6ED5DA100E196E2A
:1013F000030E1A6EC80E1B6E000E1C6ECCDAE40EC5
:10140000196E020E1A6E7D0E1B6E000E1C6EC3DA74
:10141000BA0E196E020E1A6E7D0E1B6E000E1C6E39
:10142000BADAE40E196E020E1A6EFA0E1B6E000E78
:101430001C6EB1DA100E0B6E390E0C6E0D0E0D6EA9
:101440000D2EFED70C2EFCD70B2EFAD70000000075
:10145000C70E196E010E1A6EFA0E1B6E000E1C6E70
:101460009ADA6E0E196E020E1A6E900E1B6E010E37
:101470001C6E91DA4B0E196E020E1A6EC80E1B6EA0
:10148000000E1C6E88DA2A0E196E020E1A6EC80E35
:101490001B6E000E1C6E7FDA0B0E196E020E1A6E9A
:1014A0007D0E1B6E000E1C6E76DAD20E196E010ECA
:1014B0001A6E7D0E1B6E000E1C6E6DDA0B0E196E11
:1014C000020E1A6EFA0E1B6E000E1C6E64DA100EFF
:1014D0000B6E390E0C6E0D0E0D6E0D2EFED70C2EF2
:1014E000FCD70B2EFAD7000000005D0E196E010E1E
:1014F0001A6EFA0E1B6E000E1C6E4DDA9F0E196EE0
:10150000010E1A6EF40E1B6E010E1C6E44DA5D0E97
:10151000196E010E1A6E770E1B6E010E1C6E3BDAF1
:101520000B0E196E020E1A6E7D0E1B6E000E1C6ED7
:1015300032DAB80E196E010E1A6EF40E1B6E010E21
:101540001C6E29DA5D0E196E010E1A6E770E1B6E77
:10155000010E1C6E20DA0B0E196E020E1A6E7D0E35
:101560001B6E000E1C6E17DAB80E196E010E1A6E85
:101570008A0E1B6E020E1C6E0EDA7A0E0B6EC10EF8
:101580000C6E810E0D6E0D2EFED70C2EFCD70B2E81
:0A159000FAD7000000003DD5FFD798
:10159A000B6A0A6A096A086A0E6A03340836045032
:1015AA00085E0550D8A0053C095E0650D8A0063C46
:1015BA000A5E0750D8A0073C0B5EE86AD8A0010E65
:1015CA000E5E0336070E0C6E0334083609360A36E9
:1015DA000B360E36045003A012D0085E0550D8A070
:1015EA00053C095E0650D8A0063C0A5E0750D8A002
:1015FA00073C0B5EE86AD8A0010E0E5E11D00826E1
:10160A000550D8B0053C09260650D8B0063C0A2633
:10161A000750D8B0073C0B26E86AD8B0010E0E2650
:10162A0003360C2ED1D70234083609360A360B3661
:10163A000E36045003A012D0085E0550D8A0053C0F
:10164A00095E0650D8A0063C0A5E0750D8A0073C9F
:10165A000B5EE86AD8A0010E0E5E11D0082605506E
:10166A00D8B0053C09260650D8B0063C0A260750D1
:10167A00D8B0073C0B26E86AD8B0010E0E2602360F
:10168A00070E0C6E0234083609360A360B360E3649
:10169A00045002A012D0085E0550D8A0053C095E8D
:1016AA000650D8A0063C0A5E0750D8A0073C0B5E3D
:1016BA00E86AD8A0010E0E5E11D008260550D8B0EF
:1016CA00053C09260650D8B0063C0A260750D8B071
:1016DA00073C0B26E86AD8B0010E0E2602360C2EFD
:1016EA00D1D70134083609360A360B360E3604507D
:1016FA0002A012D0085E0550D8A0053C095E06502B
:10170A00D8A0063C0A5E0750D8A0073C0B5EE86AE0
:10171A00D8A0010E0E5E11D008260550D8B0053C9F
:10172A0009260650D8B0063C0A260750D8B0073C0E
:10173A000B26E86AD8B0010E0E260136070E0C6E8B
:10174A000134083609360A360B360E36045001A023
:10175A0012D0085E0550D8A0053C095E0650D8A0F4
:10176A00063C0A5E0750D8A0073C0B5EE86AD8A080
:10177A00010E0E5E11D008260550D8B0053C092688
:10178A000650D8B0063C0A260750D8B0073C0B26AC
:10179A00E86AD8B0010E0E2601360C2ED1D70034D5
:1017AA00083609360A360B360E36045001A012D016
:1017BA00085E0550D8A0053C095E0650D8A0063C34
:1017CA000A5E0750D8A0073C0B5EE86AD8A0010E53
:1017DA000E5E11D008260550D8B0053C09260650E1
:1017EA00D8B0063C0A260750D8B0073C0B26E86A50
:1017FA00D8B0010E0E260036070E0C6E00340836DD
:10180A0009360A360B360E36045000A012D0085E8E
:10181A000550D8A0053C095E0650D8A0063C0A5ED1
:10182A000750D8A0073C0B5EE86AD8A0010E0E5EEE
:10183A0011D008260550D8B0053C09260650D8B064
:10184A00063C0A260750D8B0073C0B26E86AD8B0EF
:10185A00010E0E2600360C2ED1D700B00ED0045041
:10186A0008260550D8B0053C09260650D8B0063CD3
:0C187A000A260750D8B0073C0B261200CD
:10188600086A096A100E0C6E0134083609360450CF
:10189600085E0550D8A0053C095ED8B007D00450B4
:1018A60008260550D8B0053C0926D89000360136E2
:0618B6000C2EEAD712001F
:1018BC00260626062650000806E226060000000032
:1018CC0000000000F7D7000000000000000000003E
:0818DC000000000000001200F2
:1018E400220E0C6E086A096A0A6A0B6A0C06D8B4DE
:1018F4001FD0D8900B320A32093208320332023236
:1019040001320032D8A0F2D70C06D8B409D0045062
:1019140008260550092206500A2207500B22EAD74E
:10192400045008260550092206500A2207500B22AB
:0219340012009F
:10193600800E046EBB0E056E000E066E076E04C0AA
:1019460000F005C001F006C002F007C003F0120067
:1019560019C017F01AC018F01BC001F0010E006E76
:10196600015004E000360090FF0FFBD700C015F0D1
:10197600001E00C016F0120E1924E96E000E1A2081
:10198600EA6E0050EF16120EE95E0050EF161200D6
:10199600CFDFE80E046E030E056E000E066E076EB0
:1019A6009EDF00C021F001C022F002C023F003C078
:1019B60024F019C004F01AC005F0000E066E076E7A
:1019C600E9DD00C021F001C022F002C023F003C00F
:1019D60024F000C005F001C006F002C007F003C005
:1019E60008F00832073206320532089E08320732FE
:1019F60006320532089E05C000F006C001F007C099
:101A060002F008C003F00332023201320032039EB4
:101A160000C01DF001C01EF08BDF1BC004F01CC00F
:101A260005F0000E066E076E5ADF1DC009F01EC0D7
:101A36000AF0000E0B6E0C6E030E086E09C004F061
:101A46000AC005F00BC006F00CC007F0085007E00E
:101A560004360490053606360736FF0FF8D79ADDAA
:101A660000C021F001C022F002C023F003C024F020
:101A76000A0E046E000E056E1DC000F01EC001F0B9
:101A8600FFDE00C01DF001C01EF0000E015C02E189
:101A9600030E005C01E257D017C0E9FF18C0EAFF49
:101AA6002450000808E12350000805E122500008F0
:101AB60002E12150000845E21550EF121E50000ABF
:101AC60017E01F6A206A1E04256E000E006E205065
:101AD600005C02E11F50255C0BE3266AECDE000E7B
:101AE600201802E125501F1803E01F4A202AEBD7D1
:101AF6001DC026F0E0DE1650EF161E50000A17E055
:101B06001F6A206A1E04256E000E006E2050005CBF
:101B160002E11F50255C0BE3266ACDDE000E20187D
:101B260002E125501F1803E01F4A202AEBD71DC0EB
:101B360026F0C1DE010E215E000E225A235A245AD7
:081B4600AFD71650EF16120094
:020000040030CA
:0E00000000321F1EFF8881FF03C003E0034093
:00000001FF
