:1000000000EF08F00000000000EF00F0000000002A
:0A0010000000000000000000F3D71C
:101000009388949A1B6A68D80A0E1B6E86D800C013
:1010100015F001C016F000C002F001C003F0033269
:101020000232039E03320232039E02C015F003C057
:1010300016F002C01BF003C01CF019D8020E0B6E94
:10104000380E0C6EAD0E0D6E0D2EFED70C2EFCD78D
:101050000B2EFAD780B602D018EF00F0D5D7FFD705
:0E106000570E0D6E0D2EFED700000000120080
:10106E00000E006E1C50005C02E11B50000802E3F3
:10107E001B6A1C6A000E1C5C02E1B40E1B5C04E3CE
:10108E00B40E1B6E000E1C6E8B8A0A0E0C6E580E62
:10109E000D6E0D2EFED70C2EFCD70000016A000E31
:1010AE001C5C02E101501B5C0EE31F0E0D6E0D2E3B
:1010BE00FED700000000000E1C1802E11B500118A4
:0A10CE0002E0012AECD78B9A120011
:1010D8001A0E176E110E186E1B0E196E000E1A6E70
:1010E800C26A300E1B14006E07E0300E1B14BA6E75
:1010F800BA8EBAACFED701D0BA6AF00EC1160F0E7E
:101108001B14006E0050C112070EC012C08EC280A0
:021118001200C3
:10111A00C30EC216030E1B5C000ED8B0FF0E016E82
:10112A001B500B08000ED8B0FF0E006E01500016BF
:10113A0008E01BC000F00036009000360090005016
:10114A00C21289DFC282C2A202D00000FCD7C4CF79
:10115A0001F0006A00C01CF001C01DF0C3501C124F
:0E116A00000E1D121CC000F01DC001F012008E
:020000040030CA
:0E00000000321F1EFF8881FF03C003E0034093
:00000001FF
