:020000040000FA
:060000008CEF08F0120075
:08000800DACFE4FFE652E552F5
:06001000E5CFDAFF11004C
:08001800D8CFE4FFE0CFE4FFC4
:10002000E46EDACFE4FFE652E552E5CFDAFFE550C1
:0A003000E5CFE0FFE5CFD8FF100098
:101000009CEC08F09AEC08F08A8E03D88A9E01D8EE
:10101000FBD7FA0E05D8FA0E03D8640E10EF08F0CD
:0A102000E66E65EC08F0E5521200E0
:02102A000000C4
:04102C002A0EF66E24
:10103000100EF76E000EF86E00010900F550656F96
:101040000900F550666F03E1656701D03DD00900E6
:10105000F550606F0900F550616F0900F550626F3F
:1010600009000900F550E96E0900F550EA6E090023
:1010700009000900F550636F0900F550646F09001D
:101080000900F6CF67F0F7CF68F0F8CF69F060C0DD
:10109000F6FF61C0F7FF62C0F8FF0001635302E191
:1010A000645307E00900F550EE6E6307F8E2640749
:1010B000F9D767C0F6FF68C0F7FF69C0F8FF000105
:0A10C0006507000E665BBFD7120043
:0610CA00FF0EE350036E6F
:1010D000EF0E01D0F30EE76EE72E6CEF08F00C0E6A
:1010E000026EE76AE72E72EF08F0022E71EF08F049
:0810F000032E6AEF08F0120064
:0810F800000EF36E00EE00F0A3
:10110000030E01D81200EA6002D0EE6AFCD7F35059
:08111000E9601200EE6AFCD751
:0811180011EE00F021EE00F0E1
:10112000F86A019C16EC08F09DEC08F000EC08F061
:04113000FBD71200D7
:04113400939E120074
:021138001200A3
:02113A001200A1
:020000040030CA
:0100000000FF
:0100010032CC
:010002001FDE
:010003001EDE
:010005008872
:010006008178
:0100080003F4
:01000900C036
:01000A0003F2
:01000B00E014
:01000C0003F0
:01000D0040B2
:00000001FF
