:1000000000EF08F00000000000EF00F0000000002A
:0A0010000000000000000000F3D71C
:10100000936A946A8B8617D88B8C15D88B8E13D8DD
:101010008A8E11D88A8A0FD88A8C0DD88A880BD8E4
:101020008B8A09D88B8807D88B8405D88B8203D804
:101030008B8001D8E7D71F0E0B6E710E0C6E1E0E43
:101040000D6E0D2EFED70C2EFCD70B2EFAD70000FE
:101050008B6A8A6A1F0E0B6E710E0C6E1E0E0D6E61
:101060000D2EFED70C2EFCD70B2EFAD70000120047
:02107000FFD7A8
:020000040030CA
:0E00000000321F1EFF8881FF03C003E0034093
:00000001FF
