:1000000015EF08F000000000BBEF08F00000000052
:0A0010000000000000000000F3D71C
:0E10000015EF08F000EF00F0BBEF08F0120053
:10100E000900F5CFE6FF0006FBE10106F9E112004B
:10102A00186A196A1A6A1B6A1C6A1D6A1E6A1F6A8A
:10103A00080E926E936A946A896A8A6A8B6A010EAA
:10104A00D56E150ED76EA00ED66EE00EF26ED09E3D
:10105A00D58E80B602D018EF00F0070E0B6E170E71
:10106A000C6E6A0E0D6E0D2EFED70C2EFCD70B2EB3
:10107A00FAD700001C6A1D6A800E006E800E1D18C9
:10108A00005C02E11C50B40810E31CC01AF01DC039
:10109A001BF0100E0C6E940E0D6E0D2EFED70C2E3C
:1010AA00FCD700001C4A1D2AE7D71C6A1D6A800E5D
:1010BA00006E800E1D18005C02E11C50B40813E398
:1010CA001CC018F01DC019F0020E0B6E380E0C6E03
:1010DA00AD0E0D6E0D2EFED70C2EFCD70B2EFAD7A9
:1010EA001C4A1D2AE4D7B40E1C6E000E1D6E800E1B
:1010FA001D18006E800E005C02E1000E1C5C12E3FB
:10110A001CC01AF01DC01BF0100E0C6E940E0D6E52
:10111A000D2EFED70C2EFCD70000010E1C5E000E11
:10112A001D5AE5D7B40E1C6E000E1D6E800E1D18DA
:10113A00006E800E005C02E1000E1C5C15E31CC010
:10114A0018F01DC019F0020E0B6E380E0C6EAD0EA3
:10115A000D6E0D2EFED70C2EFCD70B2EFAD7010ED4
:0C116A001C5E000E1D5AE2D774D7FFD7A0
:1011760000C017F00CC016F00DC015F0F2A448D050
:10118600D59EF294150ED76EA00ED66E8A7E8B8AE9
:101196000A0E0C6E580E0D6E0D2EFED70C2EFCD7B9
:1011A60000001E6A1F6A800E1B18006E800E1F1834
:1011B600005C02E11E501A5C09E3230E0D6E0D2E33
:1011C600FED7000000001E4A1F2AEDD78B9A8B8897
:1011D6000A0E0C6E580E0D6E0D2EFED70C2EFCD779
:1011E60000001E6A1F6A800E1918006E800E1F18F6
:1011F600005C02E11E50185C09E3230E0D6E0D2EF5
:10120600FED7000000001E4A1F2AEDD78B98D58E08
:0E12160017C000F016C00CF015C00DF011004E
:020000040030CA
:0E00000000321F1EFF8881FF03C003E0034093
:00000001FF
