:1000000000EF08F00000000000EF00F0000000002A
:0A0010000000000000000000F3D71C
:10100000939E938A9398939C780EC86E5DDBB88606
:10101000040EB06EE10EAF6EAC842BDB0D0E0B6ECA
:101020002D0E0C6ED70E0D6E0D2EFED70C2EFCD78E
:101030000B2EFAD700000000440E466E650E476E78
:101040006D0E486E6F0E496E200E4A6E540E4B6E3A
:101050004D0E4C6E500E4D6E300E4E6E300E4F6E6D
:10106000370E506E516A460E526E000E536E6BDB99
:101070000A0E5F6E3AD80D0E5F6E37D8C9DB7BDB88
:1010800000C045F000C05FF030D80A0E5F6E2DD86A
:101090000D0E5F6E2AD83E0E0B6E7D0E0C6E170E77
:1010A0000D6E0D2EFED70C2EFCD70B2EFAD780B668
:0A10B00002D018EF00F0E2D7FFD7DE
:0810BA000AAE029E000E1200B6
:1010C2000B840BAE6CEF08F0010E036E026A016A2C
:0A10D200006A0A360232FF0E120017
:0E10DC00026A016A006A086A036A000E1200C6
:0E10EA00ACB202D00000FCD75FC0ADFF120018
:1010F8005FC0C9FFC7B002D00000FCD7C9CF00F05D
:021108001200D3
:10110A00026AC7B408D01F0EC514016E0150000A46
:0C111A0002E1FF0E026E02C000F01200A5
:10112600F250026EF29E0500FF6A0150FE6E0050FC
:08113600FD6E02BEF28E1200F4
:10113E000C6A0E6A0250D8A4B8EF08F001C002F093
:10114E0000C001F0006A0E860250D8A4B8EF08F075
:10115E0001C002F0016A0E960E880250D8B4CAEF92
:10116E0008F00E50035ED8A4D8A0CFEF08F0D890A8
:10117E0002BED4EF08F0003601360236032EBFEF62
:10118E0008F0CFEF08F0010E0C6EA1DFD7EF08F0DC
:10119E00020E0C6E8FDFD7EF08F0040E0C6E86DF9A
:0211AE0012002D
:1011B0000B820BAEE2EF08F003680268016800687A
:0811C0000A360232FF0E120094
:1011C8000B800BAEF0EF08F0026A0AAEFF0E026E5B
:0C11D800016E006E0A360232FF0E12009B
:1011E40000C008F00150006E016A026A036A0B6ACB
:1011F4000C6A016A026A036A960E036E0A6A00AEFA
:101204000AEF09F0081E001E082AD8B4002A0A8E24
:1012140000C001F008C000F0086A026A8EDF120004
:1012240041C061F042C062F043C063F044C064F066
:101234009E965BC0C9FFC7A431D0000E006E44184F
:1012440008E10050431805E10050421802E1415002
:10125400000A23E0000E006E0001641908E100504A
:10126400631905E10050621902E16151000A0EE1BF
:1012740023C0E1FF24C0E2FF040EE66E21C000F0AB
:1012840022C001F04EDF010E5C6E4AD0010E000157
:10129400615F000E625B635B645BCDD741C061F04C
:1012A40042C062F043C063F044C064F09EB631D0E3
:1012B400000E006E441808E10050431805E1005088
:1012C400421802E14150000A23E00001000E006EC2
:1012D400641908E10050631905E10050621902E144
:1012E4006151000A0EE123C0E1FF24C0E2FF040EB5
:1012F400E66E21C000F022C001F013DF010E5C6E27
:101304000FD0010E0001615F000E625B635B645BE2
:10131400CDD7C5BC02D05C6A03D0C584020E5C6E16
:061324005CC000F01200A5
:10132A00086A096A000E076203641AEF0AF002509B
:10133A0006180A6E075003267E0ED8A0ABEF09F0F6
:10134A00035ED8B01EEF0AF0AFEF09F0035ED8A033
:10135A0022EF0AF0028E068E02C00EF001C00BF0D8
:10136A0000C00DF000500402F4CF0CF00150050249
:10137A00F4CF00F0F3CF08F00402F3500C26F45037
:10138A000822000E00220D500502F3500C26F450DC
:10139A000822000E002202500402F3500826F450DC
:1013AA00002202500502016A000E0122F3500026B3
:1013BA00F45001220D500602F3500826F450002280
:1013CA00026A000E012202220B500602F350002686
:1013DA00F4500122000E02220E500602F35001269A
:1013EA00F450022202BE02EF0AF008360036013635
:1013FA0002360306D8B422EF0AF015EF0AF0D880B5
:10140A00800E08640030000E002201220222D8A0B9
:10141A0015EF0AF0023201320032034A1EEF0AF0D7
:10142A000AAE029E000E24EF0AF0010E52DE24EFED
:10143A000AF0020EB8DE24EF0AF0040E3DDE1200B6
:10144A0041C05BF042C05CF043C05DF044C05EF056
:10145A00C582C5A22DD0000E006E441808E10050C6
:10146A00431805E10050421802E14150000A1FE00A
:10147A00000E006E5E1808E100505D1805E100508C
:10148A005C1802E15B50000A0CE123C0E1FF24C0B2
:10149A00E2FF060EE66E21C000F022C001F03EDE39
:1014AA0007D0010E5B5E000E5C5A5D5A5E5AD1D7B8
:0214BA0012001E
:0414BC00C5841200D1
:1014C00041C061F042C062F043C063F044C064F0C8
:1014D0009E96C5869EB62FD0000E006E441808E179
:1014E0000050431805E10050421802E14150000A43
:1014F00021E0000E006E0001641908E1005063193C
:1015000005E10050621902E16151000A0CE123C0BB
:10151000E1FF24C0E2FF030EE66E21C000F022C00E
:1015200001F001DE08D0010E0001615F000E625B78
:10153000635B645BCFD7C9CF5CF0C59A5B50000A90
:10154000D8B4C58A9E96C58841C061F042C062F099
:1015500043C063F044C064F09EB62FD0000E006E0E
:10156000441808E10050431805E10050421802E118
:101570004150000A21E00001000E006E641908E1EC
:101580000050631905E10050621902E16151000A3F
:101590000CE123C0E1FF24C0E2FF030EE66E21C090
:1015A00000F022C001F0BFDD08D0010E0001615F34
:1015B000000E625B635B645BCFD75CC000F012001F
:1015C00041C061F042C062F043C063F044C064F0C7
:1015D0005C6A5D6A9ADD0050000A01E009D05D5046
:1015E000120A02E18E0E5C1803E05C4A5D2AF2D713
:1015F000120E5D5C02E18F0E5C5C03E37B0E5B6EA2
:1016000035D0C580C5A031D0000E006E441808E169
:101610000050431805E10050421802E14150000A11
:1016200023E0000E006E0001641908E10050631908
:1016300005E10050621902E16151000A0EE123C088
:10164000E1FF24C0E2FF050EE66E21C000F022C0DB
:1016500001F069DD010E5B6E09D0010E0001615FD2
:10166000000E625B635B645BCDD75B6A5BC000F0BE
:02167000120066
:10167200EA0E316E100E326E5F0E336E000E346E55
:10168200FF0E2D6EFF0E2E6E000E2F6E000E306EB0
:10169200FF0E356EFF0E366E000E376E000E386E80
:1016A200FF0E3D6EFF0E3E6E000E3F6E000E406E50
:1016B200AC8A900EAB6E938A938E9EAA03D0AECF65
:0616C20000F0FBD712004E
:1016C800416A426A436A446A0A0E256E110E266E02
:1016D800000E276E000E286EC00E1D6E150E1E6EB3
:1016E800000E1F6E000E206E4A0E156E140E166E3A
:1016F800000E176E000E186EC00E196E140E1A6EBC
:101708005B0E1B6E000E1C6E240E296E120E2A6EC6
:101718005B0E2B6E000E2C6EBC0E396E140E3A6EDC
:10172800000E3B6E000E3C6E9398939C8A988A9CA0
:0E1738009388938CC79EC79C380EC66E120015
:10174600546A52C0E9FF53C0EAFFEECF55F0555038
:10175600000A0DE055C05FF0C5DC542A54505224EF
:10176600E96E000E5320EA6EEECF55F0F0D7120068
:101776000B6A0C6A0A6A0350D8B4F0EF0BF00A9EA3
:10178600028E860E035E03BECEEF0BF0D8B4CEEF0C
:101796000BF0F3EF0BF0036C080E035CD8A0DCEF44
:1017A6000BF0036E0236026A0350D8A4D890E5EF18
:1017B6000BF00350D8B4E5EF0BF0D8900232032EAD
:1017C600E0EF0BF00BBC02A0F0EF0BF0D8A0F0EFAF
:1017D6000BF0022AD8B4FAEF0BF0016AFFEF0BF018
:1017E6000B800BAE03EF0CF0016A03EF0CF0010E59
:1017F6000C6EE7DC05EF0CF0000E0C6E05EF0CF03E
:0A180600FF0E0C6E0250006E12007F
:10181000D7DE800E5B6E06DD030E5B6E03DD15DE2C
:10182000810E5B6EFFDC010E5B6E4ADE00C056F07F
:101830005B6A46DE00C057F041DE56C001F0006A28
:1018400057500010046E01C005F0000E051204C0D0
:1018500002F005C003F003320232039E03BC038E84
:1018600003320232039E03BC038E02C059F003C050
:101870005AF003AA04D0000E5912E00E5A1259C0B1
:1018800000F05AC001F0AEDC000E046E000E056ED2
:10189000000E066E7A0E076E48DD00C052F001C0E1
:1018A00053F002C054F003C055F052C000F053C0D2
:0C18B00001F054C002F055C003F012001B
:020000040030CA
:0E00000000321F1EFF8881FF03C003E0034093
:00000001FF
