:020000040000FA
:060000008DEF08F0120074
:0600080004EF08F01200F5
:060018000CEF08F01200DD
:061000008DEF08F0120064
:021006000000E8
:061008005EEF08F012008B
:02100E001200CE
:0610180065EF08F0120074
:02101E00060EBC
:10102000F66E100EF76E000EF86E00010900F55016
:10103000656F0900F550666F03E1656701D03DD02B
:101040000900F550606F0900F550616F0900F55017
:10105000626F09000900F550E96E0900F550EA6E6B
:10106000090009000900F550636F0900F550646F2D
:1010700009000900F6CF67F0F7CF68F0F8CF69F004
:1010800060C0F6FF61C0F7FF62C0F8FF0001635364
:1010900002E1645307E00900F550EE6E6307F8E2E1
:1010A0006407F9D767C0F6FF68C0F7FF69C0F8FFAB
:0C10B00000016507000E665BBFD7120050
:0410BC00DACFE4FFA4
:1010C000E652E552E5CFDAFF1100D8CFE4FFE0CFDA
:1010D000E4FFE46EDACFE4FFE652E552E5CFDAFF53
:1010E000E550E5CFE0FFE5CFD8FF1000939E80B636
:0A10F00002D08A9EFCD78A8EFAD740
:0610FA00000EF36E00EE93
:1011000000F0030E01D81200EA6002D0EE6AFCD7AC
:0A111000F350E9601200EE6AFCD70C
:06111A0011EE00F021EED1
:1011200000F0F86A019C0FEC08F007EC08F076EC90
:0611300008F0FBD71200DD
:020000040030CA
:0100000000FF
:0100010032CC
:0100020012EB
:010003001EDE
:0100050000FA
:010006008178
:0100080003F4
:01000900C036
:01000A0003F2
:01000B00E014
:01000C0003F0
:01000D0040B2
:00000001FF
