:1000000000EF08F00000000000EF00F0000000002A
:0A0010000000000000000000F3D71C
:101000007F96938A939E9388B886040EB06EE10E05
:10101000AF6EAC846BD8450E266E6A0E276E650ED9
:10102000286E6D0E296E700E2A6E6C0E2B6E6F0E72
:101030002C6E200E2D6E620E2E6E6C0E2F6E750EA7
:10104000306E650E316E740E326E6F0E336E6F0E33
:10105000346E740E356E680E366E376A260E386E34
:10106000000E396E6ED80A0E3C6E27D80D0E3C6EFF
:1010700024D880B616D0480E266E6F0E276E6C0EE2
:10108000286E610E296E2A6A260E386E000E396EA1
:1010900058D80A0E3C6E11D80D0E3C6E0ED880A6A4
:1010A000FED71DD80050000A06E00ED800C015F08B
:0A10B00000C03CF002D8DDD7FFD7E6
:0E10BA00ACB202D00000FCD73CC0ADFF12006B
:1010C800AECF02F0ABA202D0AB98AB8802C001F061
:0610D80001C000F012004F
:0E10DE00000E9EBA010E016E01C000F012005D
:1010EC00BA0E1A6E100E1B6E3C0E1C6E000E1D6E90
:1010FC00C80E1E6E100E1F6E000E206E000E216E9E
:10110C00DE0E166E100E176E000E186E000E196E97
:10111C00FF0E226EFF0E236E000E246E000E256E47
:10112C00AC8A900EAB6E938A938E9EAA03D0AECFF0
:06113C0000F0FBD71200D9
:101142003A6A38C0E9FF39C0EAFFEECF3BF03B50C4
:10115200000A0DE03BC03CF0AFDF3A2A3A50382497
:10116200E96E000E3920EA6EEECF3BF0F0D71200A6
:020000040030CA
:0E00000000321F1EFF8881FF03C003E0034093
:00000001FF
