:1000000000EF08F00000000000EF00F0000000002A
:0A0010000000000000000000F3D71C
:10100000490E466E320E476E430E486E200E496EF4
:101010004C0E4A6E430E4B6E440E4C6E200E4D6EBF
:10102000450E4E6E580E4F6E410E506E4D0E516E67
:10103000500E526E4C0E536E450E546E556A480E4D
:10104000356E6F0E366E6C0E376E610E386E200E7A
:10105000396E6D0E3A6E750E3B6E6E0E3C6E640E02
:101060003D6E6F0E3E6E210E3F6E200E406E3A0EAC
:10107000416E290E426E436A780EC86E13DA51DA59
:101080000C0E646F23D9010E646F20D9010E576EC8
:10109000010E586E460E596E000E5A6ED2DA020ECE
:1010A000576E010E586E350E596E000E5A6EC9DA23
:0410B000FFD7FFD790
:0E10B400ACB202D00000FCD76FC0ADFF12003E
:1010C2006FC0C9FFC7B002D00000FCD7C9CF00F083
:0210D20012000A
:1010D400026AC7B408D01F0EC514016E0150000A7D
:0C10E40002E1FF0E026E02C000F01200DC
:1010F000F250026EF29E0500FF6A0150FE6E005033
:08110000FD6E02BEF28E12002A
:04110800C584120088
:10110C0031C06AF032C06BF033C06CF034C06DF09B
:10111C009E9668C0C9FFC7A431D0000E006E34186B
:10112C0008E10050331805E10050321802E131504B
:10113C00000A23E0000E006E00016D1908E100505A
:10114C006C1905E100506B1902E16A51000A0FE1BC
:10115C001FC0E1FF20C0E2FF040EE66E1DC000F0D0
:10116C001EC001F0BFDF010E0001696F4BD0010EF4
:10117C006A5F000E6B5B6C5B6D5BCDD731C06AF048
:10118C0032C06BF033C06CF034C06DF09EB631D011
:10119C00000E006E341808E10050331805E10050C1
:1011AC00321802E13150000A23E00001000E006EFB
:1011BC006D1908E100506C1905E100506B1902E142
:1011CC006A51000A0FE11FC0E1FF20C0E2FF040ECC
:1011DC00E66E1DC000F01EC001F084DF010E0001A0
:1011EC00696F10D0010E6A5F000E6B5B6C5B6D5B00
:1011FC00CDD7C5BC03D00001696B04D00001C584F8
:0A120C00020E696F69C000F01200C5
:1012160031C06BF032C06CF033C06DF034C06EF08C
:101226000001696B6A6B53DF0050000A01E00AD0C7
:1012360000016A51120A02E18E0E691903E0694B38
:101246006A2BF1D70001120E6A5D02E18F0E695D0D
:1012560003E37B0E686F34D0C580C5A030D0000E86
:10126600006E341808E10050331805E100503218BA
:1012760002E13150000A22E0000E006E6E1908E10C
:1012860000506D1905E100506C1902E16B51000A1E
:101296000FE11FC0E1FF20C0E2FF050EE66E1DC094
:1012A60000F01EC001F021DF010E0001686F08D0BA
:1012B600010E6B5F000E6C5B6D5B6E5BCED7686B71
:0612C60068C000F01200F8
:1012CC000001676BF00E6415656F64C066F06637DD
:1012DC006691663766916637669166376691F00E51
:1012EC00661793DFF1DE4E0E0001686F09DFECDE4E
:1012FC00000167516511686F6885688701DFE4DE5E
:10130C00C70E0D6E0D2EFED70000000000016751B8
:10131C006511686F6887F4DED7DE020E0C6E8D0ED9
:10132C000D6E0D2EFED70C2EFCD700000000000118
:10133C0067516611686F68856887E2DEC5DEC70E87
:10134C000D6E0D2EFED700000000000167516611D6
:10135C00686F6887D5DEB8DED1DE00016451010A02
:10136C000AE1200E0C6E290E0D6E0D2EFED70C2EE2
:08137C00FCD700000000120084
:101384005EC004F05FC005F004C0E9FF05C0EAFFD9
:10139400EE50000A03E0044A052AF6D75E50045CC6
:1013A400026E5F500558036E02C000F003C001F0E6
:0213B400120025
:1013B600010E0001606F6151010A07E16205006ECE
:1013C6000050800F646F7FDF1ED06151020A07E173
:1013D6006205006E0050C00F646F75DF14D0615156
:1013E600030A07E16205006E0050940F646F6BDF1D
:1013F6000AD06151040A07E16205006E0050D40F5D
:10140600646F61DF00D0F00E63155E6E63C05FF03F
:101416005F365F905F365F905F365F905F365F90B6
:10142600F00E5F16F5DE53DE4E0E0001686F6BDEC2
:101436004EDE000160515E10686F6885688763DE66
:1014460046DEC70E0D6E0D2EFED700000000000111
:1014560060515E10686F688756DE39DE020E0C6ECC
:101466008D0E0D6E0D2EFED70C2EFCD70000000043
:10147600000160515F10686F6885688744DE27DE6B
:10148600C70E0D6E0D2EFED7000000000001605144
:0E1496005F10686F688737DE1ADE33DE1200E3
:1014A400316A326A336A346AD40E196E100E1A6EB7
:1014B400000E1B6E000E1C6E160E156E120E166EAE
:1014C400000E176E000E186EFF0E216EFF0E226EB8
:1014D400000E236E000E246EFF0E2D6EFF0E2E6E78
:1014E400FF0E2F6EFF0E306E0C0E296E110E2A6E3B
:1014F400680E2B6E000E2C6E080E256E110E266ED5
:10150400000E276E000E286E9398939C8A988A9CEE
:0E1514009388938CC79EC79C380EC66E12003B
:1015220079DED7DD4E0E0001686FEFDDD2DD020EEF
:101532000B6ED40E0C6E850E0D6E0D2EFED70C2E7C
:10154200FCD70B2EFAD7300E57100001686F688552
:101552006887DBDDBEDDC70E0D6E0D2EFED70000E7
:101562000000300E57100001686F6887CEDDB1DDD4
:101572009C0E0C6ED70E0D6E0D2EFED70C2EFCD7C8
:10158200300E57100001686F68856887BEDDA1DDE7
:10159200C70E0D6E0D2EFED700000000300E571044
:1015A2000001686F6887B1DD94DD9C0E0C6ED70E6A
:1015B2000D6E0D2EFED70C2EFCD7300E57100001EB
:1015C200686F68856887A1DD84DDC70E0D6E0D2EFC
:1015D200FED700000000300E57100001686F6887C8
:1015E20094DD77DD9C0E0C6ED70E0D6E0D2EFED7A0
:1015F2000C2EFCD7200E57100001686F6885688793
:1016020084DD67DDC70E0D6E0D2EFED700000000D3
:10161200200E57100001686F688777DD5ADD73DD91
:101622009C0E0C6ED70E0D6E0D2EFED70C2EFCD717
:10163200280E0001646F49DE060E646F46DE12005A
:101642005B6A59C05EF05AC05FF09BDE010E005C1F
:101652005C6E000E01585D6E000E5D5C02E15B5037
:101662005C5C16E357C061F058C062F05B505924CD
:10167200E96E000E5A20EA6EEECF63F09BDE582A26
:10168200000E5D1802E15C505B1802E05B2AD9D7BC
:02169200120044
:020000040030CA
:0E00000000321F1EFF8881FF03C003E0034093
:00000001FF
