:020000040000FA
:06000000EBEF07F0120017
:0600080004EF08F01200F5
:060018000CEF08F01200DD
:0E0020000100F40F0000FE02000002000000CC
:02002E000201CD
:10003000A36BA769A869A969A66B010EAA6F120034
:10004000D9CFE6FFE1CFD9FFE6520201A3511FE16C
:10005000020108BF5BD1400EE66EA60EE66E000EF2
:10006000E66EF3EC05F0E552E552E5520201010EB1
:10007000A36FDF6A400EDF5C01E348D1DF50EA6A1C
:10008000600FE96E000EEA22EF6ADF2AF3D7000163
:10009000A651080A01E139D10F0A01E1EDD0010AA8
:1000A00001E1E4D0030A01E194D0010A4BE0070A20
:1000B0003FE0010A01E02AD10001020E606F3A0E12
:1000C000616F010E626F636F646B100E656F666B1C
:1000D000676B686B300E696F6A6B6B6B030E6C6FCE
:1000E0006D6B6E6B300E6F6F706B0E0E716F726B8F
:1000F000736B746B010E756F766B776B200E786F78
:10010000796B080E7A6F7B6B7C6B7D6B7E69020E60
:100110007E6F7F6B806BF00E816F826B836B010E45
:10012000846F856B866B876902010CBFEFD0DFD0CF
:100130000201010EAA6F0001A75101E0E3D0020104
:10014000AA6BE0D0400E0201A46FA56B000EA45D67
:10015000010EA5591FE2B4D9A4C200F0A5C201F056
:10016000026A060E1F0BA4C2F6FFA5C2F7FF02C06B
:10017000F8FF06E0D890F636F736F836E806FAE1EA
:10018000940EA66EAAD94DEC06F00201A42B000E27
:10019000A523DCD7DF6ADF50A96EA868040EA66E1F
:1001A0004DEC06F09AD9DF50DF2A006E016A026A30
:1001B000FF0E005C000E0158000E0258ECE3F66AD8
:1001C000F76A200EF86E940EA66EB50EE66E5ED936
:1001D00098D0300EA95D06E10201AA5101E092D04B
:1001E00014D990D0F00EA95D02E135D98BD0E86822
:1001F0000201A7190CE1E868A81909E1E868A91942
:1002000006E1A7C0A7F2A8C0A8F2A9C0A9F2A70E4C
:10021000E96E020EEA6EEE500001A71973E1EE508E
:10022000A81970E1EE50A9196DE16CE1DF6A0001D7
:10023000AB51DF5C67E23A0ED880AB55DF2452D970
:10024000E66E0201A651EA6AAB0FE96E020EEA22DF
:10025000E552E750EF6EA62BA72B000EA823A9238B
:10026000100EA65D01E16DD8DF2AE1D76AD8020140
:10027000A769A869A96947D00001070E606FA7C0E8
:1002800061F0A8C062F0A9C063F0AAC064F0ABC07E
:1002900065F0A7C0F6FFA8C0F7FFA9C0F8FFDF6AA6
:1002A0000001AB51DF5C20E2F00EA95D0AE1DF50F6
:1002B000A725A96EA66AA6803A0E06D9A8CFEFFF99
:1002C00011D000D9300EF85C08E1050EF65C01E1B2
:1002D000F568080EF65C01E1F5683A0E0001F4D805
:1002E000F5CFEFFFDF2ADCD702010CBF0FD0400EA5
:1002F000E66E600EE66E000EE66EC3EC05F0E552AB
:10030000E552E5520201A36B01D005D8E552E55252
:10031000E7CFD9FF12006492646A0001A06BFF0E60
:100320000001A05D0AE2E868E85004E0E80600D0B9
:1003300000D0FAD70001A02BF2D7FF000000000088
:1003400012000001A26BA6C200F0016A026A00500E
:100350000201A75DF66E01500201A859F76E025026
:100360000201A959F86E0F0EF6140001A36FF00EEA
:10037000F6160001A16B100E0001A15D1FE2000145
:10038000A35115E10201A6510FE00001A251EA6A52
:10039000AB0FE96E020EEA22EF50F56E0D00000180
:1003A000A22B0201A60702D0F5680D0004D0F56863
:1003B0000D000001A3070001A12BDDD70A00A40E48
:1003C000A66EB50EE66E62D8E5520001A16B020181
:1003D000A6510001A15D18E20001A2510001A12572
:1003E000EA6AAB0FE96E020EEA22EF50E66E0001F8
:1003F000A151EA6AAB0FE96E020EEA22E552E7501C
:10040000EF6E0001A12BE3D71200A7C0F6FFA8C032
:10041000F7FFA9C0F8FF0001A46B0001AB51000178
:10042000A45D18E23A0E0001D880AB550001A42566
:10043000EA6AAC0FE96E000EEA22EF50F56E0C008E
:10044000C40EA66EB50EE66E21D8E5520900000175
:10045000A42BE3D712000001A56B0001AB510001F2
:10046000A55D13E20001A7510001A525A96E3A0E72
:100470000001D880AB550001A52534D8A86E040E24
:10048000A66E2BD80001A52BE8D71200D9CFE6FF26
:10049000E1CFD9FFF29EFE0EDB50B50805E0030E5A
:1004A000D36E0300FED7FF00550EA76EAA0EA76EEF
:1004B000A682A6B2FED7A694E552E7CFD9FF1200D6
:1004C0000400120009001200D880AB55DF24EA6A4C
:1004D000660FE96E000EEA221200B50EE66ED6DF58
:1004E000E5521200EA6AAC0FE96E000EEA22EF5004
:0204F0001200F8
:0E04F2007DD9E652635032E16296020100515C
:100500003C0BE842E8420D0828E1180E021923E1ED
:10051000020E031920E1100E026F020E036FDF6A54
:10052000DF50006E016A080E005C000E015813E2F5
:10053000DF50EA6A180FE96E020EEA22EF50E66E0B
:10054000DF50EA6A100FE96E020EEA22E552E75028
:10055000EF6EDF2AE5D70ED80AD03FD808D0040EB8
:10056000635C03E1629650D802D0000E01D0010E08
:10057000E55242D13CD9E652020104BF046B0201AC
:10058000FD6BF56BF66BFB6BFC6B08EC04F0DF6A44
:10059000DF50006E016A010E005C000E01581AE285
:1005A0000201F65117E1F76ADF34FE0BF736F66EFB
:1005B000800EF6260E0EF7220900F5CF00F0080097
:1005C000F5CF01F004D001C0FAFF0050F96EFBDF57
:1005D000DF2ADED7B7D8E5520FD1020E0201F55D52
:1005E0000EE184D80201180E026F020E036F080E8E
:1005F000016F00BD02D0C80E05D0880E03D0DBD835
:10060000E7D88C0E006F1200040E0001E65D0CE1CD
:1006100012C25CFF0F015C51000803E20001050EED
:1006200002D00001030EE66F0201F50510E111D8BA
:10063000020E0201FD5D03E10201840E06D00201FB
:1006400004BD02D0C80E01D0880E046F1200DBEF8B
:1006500003F0CDD8020EE1260201080EFB5D000E6C
:10066000FC590DE2FBC2DEFFFCC2DDFFFD5102E1E1
:10067000010E03D0FD0506E1020EFD6F03D0080E4A
:10068000DE6EDD6A020104930491010EDB50041357
:10069000DFCF05F2000EDB500201FB5F010EDB50E5
:1006A000FC5B180EF96F020EFA6F0001E7A30CD085
:1006B00097D815E0F7C2F6FFF8C2F7FF0800F5502B
:1006C0007FD8F6E2DB06F4D78BD809E0F7C2E9FF62
:1006D000F8C2EAFFEF5074D8F7E2DB06F5D7020E56
:1006E000E15C02E2E16AE552E16E86D080D8020E5A
:1006F000E126030E02010015E76E010EE7CFDBFFD6
:1007000001C2DFFFDE500201FB27DD50FC23180E83
:10071000F76F020EF86F64D80EE0F7C2E9FFF8C277
:10072000EAFFEF50F9C2E9FFFAC2EAFFEF6E68D8BC
:10073000F2E2DB06F0D7020EE15C02E2E16AE5528A
:10074000E16E5AD064980201F65105E141D8840E59
:10075000006F02011DD0020110AF1CD00201FB513D
:100760000201165D0201FC510201175904E216C292
:10077000FBF217C2FCF26DDF0201010EF56F28D803
:10078000800E006F0201180E066F020E076FC80E72
:10079000046F12000201020EF56F0201056BC80E14
:1007A000046F0201080E016F180E026F020E036F34
:1007B000C80E006F12000201F56B0201046B1200FB
:1007C000F9C2E9FFFAC2EAFFEF6E020100EF04F09E
:1007D0000201080E016F100E026F020E036F12006D
:1007E000D9CFE9FFDACFEAFFEE50ED101200D9CFF2
:1007F000E6FFE1CFD9FF1200E552E7CFD9FF1200A3
:10080000F92B000EFA23F72BF823DF06010E120056
:1008100002011051600BE842E842E842E842E84237
:10082000000901E012001151070A40E00B0A3EE006
:10083000070A33E0010A23E00B0A1FE0020A1DE069
:10084000030A19E0080A10E0010A0CE00F0A08E0A8
:10085000030A01E0120010D90001040EE66F120035
:1008600057EF04F08EEF04F007D90201E80EF76F9E
:10087000000EF86F0CD0A9EF04F0D9EF04F000D906
:100880000201F76FF86BE90EF727000EF82300015D
:10089000E7930201010EFB6F1200F2D8EA6AE90F3A
:1008A000E96E000EEA2212C2EFFF12001200800E63
:1008B0000201105D32E11351030A1FE0010A0AE050
:1008C000030A29E1D9D80201B40EF76F0D0EF86FB3
:1008D000120E1ED0B0D8760EF6260E0EBED8020E20
:1008E0000201F76AF725F66EF851F7220900F5CFF5
:1008F000FBF20A00F5CFFCF20ED09DD87A0EF62658
:100900000E0EABD8F7C2F6FFF8C2F7FF0800F5509D
:100910000201FB6FFC6B0001E7831200ADD8070EEC
:10092000E66E540EE66E0F0EA0D8010EE66EE90ECE
:10093000E66E000E9AD812C2E8F00201125104E1EC
:100940000001050EE66F12000001060EE66FADEF26
:1009500005F00201186B196B020110511F0B020AFE
:100960000DE0030A09E0010A16E186D80001E7A1BB
:1009700012D0020118830FD07FD80DD050D801E0DB
:10098000010E62D8F9C2E9FFEA6EEF50040B03E0F2
:100990000201010E186F0201F6050AE10201180EAC
:1009A000F76F020EF86F0001E7930201020EFB6F72
:1009B0001200020112050EE110511F0B00090AE19D
:1009C0005BD8030E0201115D03E10001E78102D053
:1009D0000001E7910201125121E110511F0B0208A1
:1009E0001DE114510F0B000919E019D801E0010EA7
:1009F0002BD8030E0201115D02E1840E03D014AF67
:100A000007D0400EF9C2E9FFFAC2EAFFEF6E12000A
:100A1000880EF9C2E9FFFAC2EAFFEF6E120030D881
:100A20000F0B080DF350016A000F006E020E012239
:100A30001451800B120020D802011251F66EF76A91
:100A4000D890F636F7361200040DF3500201002458
:100A5000F96F000E0120FA6F1200F7220900F5CF9E
:100A6000F7F20A00F5CFF8F21200E66EC5EC06F0D8
:100A7000E552E552E55212000201010EF66F120036
:080A8000FBDF0201145112001A
:080A8800020110511F0B0108CF
:100A900001E01200145101E01200060E115D24E184
:100AA0001351230A1FE0010A0DE0030A1BE1DCD801
:100AB0000001E80505E10201D80EF76F0D0EF86F91
:100AC000090E0DD0D1D80001E80505E10201590E4B
:100AD000F76F0E0EF86F0001E80504E11D0E02012C
:100AE000FB6FFC6B0001E78302011051600BE842D1
:100AF000E842E842E842E842010801E012001151F0
:100B00000B0A25E0080A17E0090A11E0080A09E0C3
:100B10000B0A05E0080A01E01200ABEF05F0ACEFAC
:100B200005F0A2D80201EA0EF76F000E09D09CD89A
:100B300013C2EAF0120098D80201EB0EF76F000E14
:100B4000F86F0001E7930201010EFB6F12008CD8D1
:100B500012C2EBF01200120012000001EC6B0F0148
:100B60001E0E546F0201400E096F200E0A6F020E16
:100B70000B6F880E086F0201600E0E6F020E0F6F72
:100B8000400E0C6F1200D9CFE6FFE1CFD9FFE6523D
:100B9000FC0EDB50400805E2400EF36EFC0EF3CF76
:100BA000DBFFDF6AFC0EDB50DF5C0FE2DF5050D86A
:100BB000EF50E66EDF50EA6A600FE96E020EEA223D
:100BC000E552E750EF6EDF2AEDD7FC0EDBCF0DF2DA
:100BD000400E02010C170C7D880E0C13E552E552F5
:100BE000E7CFD9FF1200D9CFE6FFE1CFD9FF00014F
:100BF000EC6B020108BF26D0FC0EDBCF00F00951E0
:100C0000D880005403E2FC0E09C2DBFF0001EC6B4C
:100C1000FC0EDB50EC5D0FE2EC51EA6A200FE96E4E
:100C2000020EEA22EF50E66EEC5112D8E552E75080
:100C3000EF6EEC2BEDD70201400E096F0817087D0F
:100C4000880E08130001EC51E552E7CFD9FF1200DE
:100C5000E76EFD0EDBCFE9FFFE0EDBCFEAFFE750CC
:100C6000E926000EEA2212000201020EF66F1200BF
:100C700064A60CD80001E60508E164BA06D0626AF1
:100C8000606A60806088020EE66F1200646A606AC3
:100C900064860001010EE66F12000001E65101E1D9
:100CA000120062B425D864B2120062B03AD862B8B9
:100CB00017D862BA24D8030E0001E65D01E21200E3
:100CC0000001ED6B040EED5D0AE262A608D079EC3E
:100CD00002F0000901E162960001ED2BF3D712004A
:100CE000608462986482A194A0840300A09412009E
:100CF0006492609462A402D06294FCD712000F0147
:100D000053A10DD0800E0201005D07E1840E0201A7
:100D1000045D03E102018C0E006F0F015391629A92
:100D200012000F015F6B626A0F019F0E5B6F7B0EFB
:100D3000606E0F015C6B070EE66E540EE66E0F0ED2
:100D4000E66E23D8E552E552E5520F01160E536FB9
:100D500062A605D0629600D000D00000F9D7649852
:100D6000DBEC03F00201080E016F0201100E026FAE
:100D7000020E036F02018C0E006F0001E79100016B
:100D8000E86B0001030EE66F1200D9CFE6FFE1CF5A
:100D9000D9FFFD0EDBCFE9FFFE0EDBCFEAFFFC0E35
:100DA000DB5004E0EE6AFC0EDB06F9D7E552E7CF34
:040DB000D9FF120055
:0C0DB4001201000200000008D8043C00FE
:100DC00002000102000109022900010100C0FA0924
:100DD0000400000203000000092111010001221D8E
:100DE00000070581034000010705010340000104DD
:100DF000030A083A0332004200200052006F0062EA
:100E0000006F007400730020002D0020004400419A
:100E10000046005200200045006C0065006300742D
:100E20000072006F006E006900630073002C0354B1
:100E300000680075006E0064006500720042006F7B
:100E4000006C00740020004E006F007600610020EE
:100E50000075007300650072000600FF0901A10122
:100E600019012940150026FF0075089540810019D9
:100E70000129409100C0C60DC60DEF0DF30D2D0EDA
:020E8000880ADE
:0E0E8200200EF66E000EF76E000EF86E0201E6
:100E90000900F550F06F0900F550F16F03E1F067BC
:100EA00001D03DD00900F550EB6F0900F550EC6F13
:100EB0000900F550ED6F09000900F550E96E0900D1
:100EC000F550EA6E090009000900F550EE6F0900BF
:100ED000F550EF6F09000900F6CFF2F2F7CFF3F209
:100EE000F8CFF4F2EBC2F6FFECC2F7FFEDC2F8FF69
:100EF0000201EE5302E1EF5307E00900F550EE6EF8
:100F0000EE07F8E2EF07F9D7F2C2F6FFF3C2F7FFF8
:100F1000F4C2F8FF0201F007000EF15BBFD7120028
:100F2000926893689468F19E776A786A896A8A6A97
:100F30008B6A939E8A9E778680A609D09268936872
:100F40009468F18E896A8A6A8B6A00EF08F00ED87D
:100F5000040016D819D8060E0001E65D05E16450BC
:100F6000020B02E120EC00F0F3D71200140E616EC8
:100F70000001E66B0001E76B0001E86B17EF00F082
:100F800038EC06F04DEF06F00201FE51FF1104E1CE
:100F9000100EFE6F270EFF6FFE07000EFF5B060EA2
:100FA0000001E65D02E28A8E12000201FE51FF118D
:060FB00001E18A7E12003F
:0A0FB600000EF36E00EE00F0030ED3
:100FC00001D81200EA6002D0EE6AFCD7F350E96063
:060FD0001200EE6AFCD7DE
:0A0FD60011EE00F021EE00F0F86AC1
:100FE000049C41EC07F0F9EC07F090EC07F0FBD71C
:020FF0001200ED
:020FF2001200EB
:020FF4000000FB
:020000040030CA
:0100000000FF
:0100010032CC
:0100020012EB
:010003001EDE
:0100050000FA
:010006008178
:0100080003F4
:01000900C036
:01000A0003F2
:01000B00E014
:01000C0003F0
:01000D0040B2
:00000001FF
